{
    "contractName": "TicketNFT",
    "abi": [
        {
            "inputs": [],
            "stateMutability": "nonpayable",
            "type": "constructor"
        },
        {
            "anonymous": false,
            "inputs": [
                {
                    "indexed": true,
                    "internalType": "address",
                    "name": "owner",
                    "type": "address"
                },
                {
                    "indexed": true,
                    "internalType": "address",
                    "name": "approved",
                    "type": "address"
                },
                {
                    "indexed": true,
                    "internalType": "uint256",
                    "name": "tokenId",
                    "type": "uint256"
                }
            ],
            "name": "Approval",
            "type": "event"
        },
        {
            "anonymous": false,
            "inputs": [
                {
                    "indexed": true,
                    "internalType": "address",
                    "name": "owner",
                    "type": "address"
                },
                {
                    "indexed": true,
                    "internalType": "address",
                    "name": "operator",
                    "type": "address"
                },
                {
                    "indexed": false,
                    "internalType": "bool",
                    "name": "approved",
                    "type": "bool"
                }
            ],
            "name": "ApprovalForAll",
            "type": "event"
        },
        {
            "anonymous": false,
            "inputs": [
                {
                    "indexed": false,
                    "internalType": "uint256",
                    "name": "ticketId",
                    "type": "uint256"
                },
                {
                    "indexed": false,
                    "internalType": "address",
                    "name": "buyer",
                    "type": "address"
                }
            ],
            "name": "TicketReserved",
            "type": "event"
        },
        {
            "anonymous": false,
            "inputs": [
                {
                    "indexed": false,
                    "internalType": "uint256",
                    "name": "ticketId",
                    "type": "uint256"
                },
                {
                    "indexed": false,
                    "internalType": "address",
                    "name": "buyer",
                    "type": "address"
                }
            ],
            "name": "TicketSent",
            "type": "event"
        },
        {
            "anonymous": false,
            "inputs": [
                {
                    "indexed": true,
                    "internalType": "address",
                    "name": "from",
                    "type": "address"
                },
                {
                    "indexed": true,
                    "internalType": "address",
                    "name": "to",
                    "type": "address"
                },
                {
                    "indexed": true,
                    "internalType": "uint256",
                    "name": "tokenId",
                    "type": "uint256"
                }
            ],
            "name": "Transfer",
            "type": "event"
        },
        {
            "inputs": [
                {
                    "internalType": "address",
                    "name": "to",
                    "type": "address"
                },
                {
                    "internalType": "uint256",
                    "name": "tokenId",
                    "type": "uint256"
                }
            ],
            "name": "approve",
            "outputs": [],
            "stateMutability": "nonpayable",
            "type": "function"
        },
        {
            "inputs": [
                {
                    "internalType": "address",
                    "name": "owner",
                    "type": "address"
                }
            ],
            "name": "balanceOf",
            "outputs": [
                {
                    "internalType": "uint256",
                    "name": "",
                    "type": "uint256"
                }
            ],
            "stateMutability": "view",
            "type": "function"
        },
        {
            "inputs": [
                {
                    "internalType": "uint256",
                    "name": "tokenId",
                    "type": "uint256"
                }
            ],
            "name": "getApproved",
            "outputs": [
                {
                    "internalType": "address",
                    "name": "",
                    "type": "address"
                }
            ],
            "stateMutability": "view",
            "type": "function"
        },
        {
            "inputs": [
                {
                    "internalType": "uint256",
                    "name": "_ticketId",
                    "type": "uint256"
                }
            ],
            "name": "getTicketOwner",
            "outputs": [
                {
                    "internalType": "address",
                    "name": "",
                    "type": "address"
                }
            ],
            "stateMutability": "view",
            "type": "function"
        },
        {
            "inputs": [
                {
                    "internalType": "address",
                    "name": "owner",
                    "type": "address"
                },
                {
                    "internalType": "address",
                    "name": "operator",
                    "type": "address"
                }
            ],
            "name": "isApprovedForAll",
            "outputs": [
                {
                    "internalType": "bool",
                    "name": "",
                    "type": "bool"
                }
            ],
            "stateMutability": "view",
            "type": "function"
        },
        {
            "inputs": [],
            "name": "name",
            "outputs": [
                {
                    "internalType": "string",
                    "name": "",
                    "type": "string"
                }
            ],
            "stateMutability": "view",
            "type": "function"
        },
        {
            "inputs": [
                {
                    "internalType": "uint256",
                    "name": "tokenId",
                    "type": "uint256"
                }
            ],
            "name": "ownerOf",
            "outputs": [
                {
                    "internalType": "address",
                    "name": "",
                    "type": "address"
                }
            ],
            "stateMutability": "view",
            "type": "function"
        },
        {
            "inputs": [],
            "name": "reserveTicket",
            "outputs": [],
            "stateMutability": "payable",
            "type": "function"
        },
        {
            "inputs": [
                {
                    "internalType": "address",
                    "name": "from",
                    "type": "address"
                },
                {
                    "internalType": "address",
                    "name": "to",
                    "type": "address"
                },
                {
                    "internalType": "uint256",
                    "name": "tokenId",
                    "type": "uint256"
                }
            ],
            "name": "safeTransferFrom",
            "outputs": [],
            "stateMutability": "nonpayable",
            "type": "function"
        },
        {
            "inputs": [
                {
                    "internalType": "address",
                    "name": "from",
                    "type": "address"
                },
                {
                    "internalType": "address",
                    "name": "to",
                    "type": "address"
                },
                {
                    "internalType": "uint256",
                    "name": "tokenId",
                    "type": "uint256"
                },
                {
                    "internalType": "bytes",
                    "name": "_data",
                    "type": "bytes"
                }
            ],
            "name": "safeTransferFrom",
            "outputs": [],
            "stateMutability": "nonpayable",
            "type": "function"
        },
        {
            "inputs": [
                {
                    "internalType": "uint256",
                    "name": "_ticketId",
                    "type": "uint256"
                }
            ],
            "name": "sendTicket",
            "outputs": [],
            "stateMutability": "payable",
            "type": "function"
        },
        {
            "inputs": [
                {
                    "internalType": "address",
                    "name": "operator",
                    "type": "address"
                },
                {
                    "internalType": "bool",
                    "name": "approved",
                    "type": "bool"
                }
            ],
            "name": "setApprovalForAll",
            "outputs": [],
            "stateMutability": "nonpayable",
            "type": "function"
        },
        {
            "inputs": [
                {
                    "internalType": "bytes4",
                    "name": "interfaceId",
                    "type": "bytes4"
                }
            ],
            "name": "supportsInterface",
            "outputs": [
                {
                    "internalType": "bool",
                    "name": "",
                    "type": "bool"
                }
            ],
            "stateMutability": "view",
            "type": "function"
        },
        {
            "inputs": [],
            "name": "symbol",
            "outputs": [
                {
                    "internalType": "string",
                    "name": "",
                    "type": "string"
                }
            ],
            "stateMutability": "view",
            "type": "function"
        },
        {
            "inputs": [
                {
                    "internalType": "uint256",
                    "name": "index",
                    "type": "uint256"
                }
            ],
            "name": "tokenByIndex",
            "outputs": [
                {
                    "internalType": "uint256",
                    "name": "",
                    "type": "uint256"
                }
            ],
            "stateMutability": "view",
            "type": "function"
        },
        {
            "inputs": [
                {
                    "internalType": "address",
                    "name": "owner",
                    "type": "address"
                },
                {
                    "internalType": "uint256",
                    "name": "index",
                    "type": "uint256"
                }
            ],
            "name": "tokenOfOwnerByIndex",
            "outputs": [
                {
                    "internalType": "uint256",
                    "name": "",
                    "type": "uint256"
                }
            ],
            "stateMutability": "view",
            "type": "function"
        },
        {
            "inputs": [
                {
                    "internalType": "uint256",
                    "name": "tokenId",
                    "type": "uint256"
                }
            ],
            "name": "tokenURI",
            "outputs": [
                {
                    "internalType": "string",
                    "name": "",
                    "type": "string"
                }
            ],
            "stateMutability": "view",
            "type": "function"
        },
        {
            "inputs": [],
            "name": "totalSupply",
            "outputs": [
                {
                    "internalType": "uint256",
                    "name": "",
                    "type": "uint256"
                }
            ],
            "stateMutability": "view",
            "type": "function"
        },
        {
            "inputs": [
                {
                    "internalType": "address",
                    "name": "from",
                    "type": "address"
                },
                {
                    "internalType": "address",
                    "name": "to",
                    "type": "address"
                },
                {
                    "internalType": "uint256",
                    "name": "tokenId",
                    "type": "uint256"
                }
            ],
            "name": "transferFrom",
            "outputs": [],
            "stateMutability": "nonpayable",
            "type": "function"
        }
    ],
    "bytecode": "60806040526001600a5564174876e800600b553480156200001f57600080fd5b506040805180820182526009815268151a58dad95d13919560ba1b6020808301918252835180850190945260048452631513919560e21b9084015281519192916200006d916000916200009e565b508051620000839060019060208401906200009e565b5050600c80546001600160a01b031916331790555062000180565b828054620000ac9062000144565b90600052602060002090601f016020900481019282620000d057600085556200011b565b82601f10620000eb57805160ff19168380011785556200011b565b828001600101855582156200011b579182015b828111156200011b578251825591602001919060010190620000fe565b50620001299291506200012d565b5090565b5b808211156200012957600081556001016200012e565b600181811c908216806200015957607f821691505b6020821081036200017a57634e487b7160e01b600052602260045260246000fd5b50919050565b611a8880620001906000396000f3fe6080604052600436106101145760003560e01c80634f6ccce7116100a0578063a22cb46511610064578063a22cb465146102d9578063ad093409146102f9578063b88d4fde1461032f578063c87b56dd1461034f578063e985e9c51461036f57600080fd5b80634f6ccce71461025c5780636352211e1461027c57806370a082311461029c578063951b81f5146102bc57806395d89b41146102c457600080fd5b8063115cb795116100e7578063115cb795146101ca57806318160ddd146101dd57806323b872dd146101fc5780632f745c591461021c57806342842e0e1461023c57600080fd5b806301ffc9a71461011957806306fdde031461014e578063081812fc14610170578063095ea7b3146101a8575b600080fd5b34801561012557600080fd5b50610139610134366004611585565b6103b8565b60405190151581526020015b60405180910390f35b34801561015a57600080fd5b506101636103e3565b60405161014591906115fa565b34801561017c57600080fd5b5061019061018b36600461160d565b610475565b6040516001600160a01b039091168152602001610145565b3480156101b457600080fd5b506101c86101c3366004611642565b61050f565b005b6101c86101d836600461160d565b610624565b3480156101e957600080fd5b506008545b604051908152602001610145565b34801561020857600080fd5b506101c861021736600461166c565b6106ef565b34801561022857600080fd5b506101ee610237366004611642565b610720565b34801561024857600080fd5b506101c861025736600461166c565b6107b6565b34801561026857600080fd5b506101ee61027736600461160d565b6107d1565b34801561028857600080fd5b5061019061029736600461160d565b610864565b3480156102a857600080fd5b506101ee6102b73660046116a8565b6108db565b6101c8610962565b3480156102d057600080fd5b50610163610a39565b3480156102e557600080fd5b506101c86102f43660046116c3565b610a48565b34801561030557600080fd5b5061019061031436600461160d565b6000908152600d60205260409020546001600160a01b031690565b34801561033b57600080fd5b506101c861034a366004611715565b610a57565b34801561035b57600080fd5b5061016361036a36600461160d565b610a8f565b34801561037b57600080fd5b5061013961038a3660046117f1565b6001600160a01b03918216600090815260056020908152604080832093909416825291909152205460ff1690565b60006001600160e01b0319821663780e9d6360e01b14806103dd57506103dd82610b77565b92915050565b6060600080546103f290611824565b80601f016020809104026020016040519081016040528092919081815260200182805461041e90611824565b801561046b5780601f106104405761010080835404028352916020019161046b565b820191906000526020600020905b81548152906001019060200180831161044e57829003601f168201915b5050505050905090565b6000818152600260205260408120546001600160a01b03166104f35760405162461bcd60e51b815260206004820152602c60248201527f4552433732313a20617070726f76656420717565727920666f72206e6f6e657860448201526b34b9ba32b73a103a37b5b2b760a11b60648201526084015b60405180910390fd5b506000908152600460205260409020546001600160a01b031690565b600061051a82610864565b9050806001600160a01b0316836001600160a01b0316036105875760405162461bcd60e51b815260206004820152602160248201527f4552433732313a20617070726f76616c20746f2063757272656e74206f776e656044820152603960f91b60648201526084016104ea565b336001600160a01b03821614806105a357506105a3813361038a565b6106155760405162461bcd60e51b815260206004820152603860248201527f4552433732313a20617070726f76652063616c6c6572206973206e6f74206f7760448201527f6e6572206e6f7220617070726f76656420666f7220616c6c000000000000000060648201526084016104ea565b61061f8383610bc7565b505050565b600c546001600160a01b031633146106755760405162461bcd60e51b81526020600482015260146024820152732cb7ba9030b932903737ba1030b71037bbb732b960611b60448201526064016104ea565b6000818152600d6020526040902054610697906001600160a01b031682610c35565b6000818152600d60209081526040918290205482518481526001600160a01b03909116918101919091527f8c02577c553f0a98910775a50cfc55c6303352262070c745177fd4da8628efa4910160405180910390a150565b6106f93382610d83565b6107155760405162461bcd60e51b81526004016104ea9061185e565b61061f838383610e7a565b600061072b836108db565b821061078d5760405162461bcd60e51b815260206004820152602b60248201527f455243373231456e756d657261626c653a206f776e657220696e646578206f7560448201526a74206f6620626f756e647360a81b60648201526084016104ea565b506001600160a01b03919091166000908152600660209081526040808320938352929052205490565b61061f83838360405180602001604052806000815250610a57565b60006107dc60085490565b821061083f5760405162461bcd60e51b815260206004820152602c60248201527f455243373231456e756d657261626c653a20676c6f62616c20696e646578206f60448201526b7574206f6620626f756e647360a01b60648201526084016104ea565b60088281548110610852576108526118af565b90600052602060002001549050919050565b6000818152600260205260408120546001600160a01b0316806103dd5760405162461bcd60e51b815260206004820152602960248201527f4552433732313a206f776e657220717565727920666f72206e6f6e657869737460448201526832b73a103a37b5b2b760b91b60648201526084016104ea565b60006001600160a01b0382166109465760405162461bcd60e51b815260206004820152602a60248201527f4552433732313a2062616c616e636520717565727920666f7220746865207a65604482015269726f206164647265737360b01b60648201526084016104ea565b506001600160a01b031660009081526003602052604090205490565b34600b54146109b35760405162461bcd60e51b815260206004820152601c60248201527f596f752073656e642077726f6e67207469636b657420616d6f756e740000000060448201526064016104ea565b600a80546000908152600d60205260409081902080546001600160a01b03191633908117909155915490517fdf22c181a3717bc64ab04ba05ae38bf951485512deca5223b7c67afe0b29f80d92610a1a9282526001600160a01b0316602082015260400190565b60405180910390a1600a8054906000610a32836118db565b9190505550565b6060600180546103f290611824565b610a53338383611021565b5050565b610a613383610d83565b610a7d5760405162461bcd60e51b81526004016104ea9061185e565b610a89848484846110ef565b50505050565b6000818152600260205260409020546060906001600160a01b0316610b0e5760405162461bcd60e51b815260206004820152602f60248201527f4552433732314d657461646174613a2055524920717565727920666f72206e6f60448201526e3732bc34b9ba32b73a103a37b5b2b760891b60648201526084016104ea565b6000610b2560408051602081019091526000815290565b90506000815111610b455760405180602001604052806000815250610b70565b80610b4f84611122565b604051602001610b609291906118f4565b6040516020818303038152906040525b9392505050565b60006001600160e01b031982166380ac58cd60e01b1480610ba857506001600160e01b03198216635b5e139f60e01b145b806103dd57506301ffc9a760e01b6001600160e01b03198316146103dd565b600081815260046020526040902080546001600160a01b0319166001600160a01b0384169081179091558190610bfc82610864565b6001600160a01b03167f8c5be1e5ebec7d5bd14f71427d1e84f3dd0314c0f7b2291e5b200ac8c7c3b92560405160405180910390a45050565b6001600160a01b038216610c8b5760405162461bcd60e51b815260206004820181905260248201527f4552433732313a206d696e7420746f20746865207a65726f206164647265737360448201526064016104ea565b6000818152600260205260409020546001600160a01b031615610cf05760405162461bcd60e51b815260206004820152601c60248201527f4552433732313a20746f6b656e20616c7265616479206d696e7465640000000060448201526064016104ea565b610cfc60008383611223565b6001600160a01b0382166000908152600360205260408120805460019290610d25908490611923565b909155505060008181526002602052604080822080546001600160a01b0319166001600160a01b03861690811790915590518392907fddf252ad1be2c89b69c2b068fc378daa952ba7f163c4a11628f55a4df523b3ef908290a45050565b6000818152600260205260408120546001600160a01b0316610dfc5760405162461bcd60e51b815260206004820152602c60248201527f4552433732313a206f70657261746f7220717565727920666f72206e6f6e657860448201526b34b9ba32b73a103a37b5b2b760a11b60648201526084016104ea565b6000610e0783610864565b9050806001600160a01b0316846001600160a01b03161480610e4e57506001600160a01b0380821660009081526005602090815260408083209388168352929052205460ff165b80610e725750836001600160a01b0316610e6784610475565b6001600160a01b0316145b949350505050565b826001600160a01b0316610e8d82610864565b6001600160a01b031614610ef15760405162461bcd60e51b815260206004820152602560248201527f4552433732313a207472616e736665722066726f6d20696e636f72726563742060448201526437bbb732b960d91b60648201526084016104ea565b6001600160a01b038216610f535760405162461bcd60e51b8152602060048201526024808201527f4552433732313a207472616e7366657220746f20746865207a65726f206164646044820152637265737360e01b60648201526084016104ea565b610f5e838383611223565b610f69600082610bc7565b6001600160a01b0383166000908152600360205260408120805460019290610f9290849061193b565b90915550506001600160a01b0382166000908152600360205260408120805460019290610fc0908490611923565b909155505060008181526002602052604080822080546001600160a01b0319166001600160a01b0386811691821790925591518493918716917fddf252ad1be2c89b69c2b068fc378daa952ba7f163c4a11628f55a4df523b3ef91a4505050565b816001600160a01b0316836001600160a01b0316036110825760405162461bcd60e51b815260206004820152601960248201527f4552433732313a20617070726f766520746f2063616c6c65720000000000000060448201526064016104ea565b6001600160a01b03838116600081815260056020908152604080832094871680845294825291829020805460ff191686151590811790915591519182527f17307eab39ab6107e8899845ad3d59bd9653f200f220920489ca2b5937696c31910160405180910390a3505050565b6110fa848484610e7a565b611106848484846112db565b610a895760405162461bcd60e51b81526004016104ea90611952565b6060816000036111495750506040805180820190915260018152600360fc1b602082015290565b8160005b8115611173578061115d816118db565b915061116c9050600a836119ba565b915061114d565b60008167ffffffffffffffff81111561118e5761118e6116ff565b6040519080825280601f01601f1916602001820160405280156111b8576020820181803683370190505b5090505b8415610e72576111cd60018361193b565b91506111da600a866119ce565b6111e5906030611923565b60f81b8183815181106111fa576111fa6118af565b60200101906001600160f81b031916908160001a90535061121c600a866119ba565b94506111bc565b6001600160a01b03831661127e5761127981600880546000838152600960205260408120829055600182018355919091527ff3f7a9fe364faab93b216da50a3214154f22a0a2b415b23a84c8169e8b636ee30155565b6112a1565b816001600160a01b0316836001600160a01b0316146112a1576112a183826113dc565b6001600160a01b0382166112b85761061f81611479565b826001600160a01b0316826001600160a01b03161461061f5761061f8282611528565b60006001600160a01b0384163b156113d157604051630a85bd0160e11b81526001600160a01b0385169063150b7a029061131f9033908990889088906004016119e2565b6020604051808303816000875af192505050801561135a575060408051601f3d908101601f1916820190925261135791810190611a1f565b60015b6113b7573d808015611388576040519150601f19603f3d011682016040523d82523d6000602084013e61138d565b606091505b5080516000036113af5760405162461bcd60e51b81526004016104ea90611952565b805181602001fd5b6001600160e01b031916630a85bd0160e11b149050610e72565b506001949350505050565b600060016113e9846108db565b6113f3919061193b565b600083815260076020526040902054909150808214611446576001600160a01b03841660009081526006602090815260408083208584528252808320548484528184208190558352600790915290208190555b5060009182526007602090815260408084208490556001600160a01b039094168352600681528383209183525290812055565b60085460009061148b9060019061193b565b600083815260096020526040812054600880549394509092849081106114b3576114b36118af565b9060005260206000200154905080600883815481106114d4576114d46118af565b600091825260208083209091019290925582815260099091526040808220849055858252812055600880548061150c5761150c611a3c565b6001900381819060005260206000200160009055905550505050565b6000611533836108db565b6001600160a01b039093166000908152600660209081526040808320868452825280832085905593825260079052919091209190915550565b6001600160e01b03198116811461158257600080fd5b50565b60006020828403121561159757600080fd5b8135610b708161156c565b60005b838110156115bd5781810151838201526020016115a5565b83811115610a895750506000910152565b600081518084526115e68160208601602086016115a2565b601f01601f19169290920160200192915050565b602081526000610b7060208301846115ce565b60006020828403121561161f57600080fd5b5035919050565b80356001600160a01b038116811461163d57600080fd5b919050565b6000806040838503121561165557600080fd5b61165e83611626565b946020939093013593505050565b60008060006060848603121561168157600080fd5b61168a84611626565b925061169860208501611626565b9150604084013590509250925092565b6000602082840312156116ba57600080fd5b610b7082611626565b600080604083850312156116d657600080fd5b6116df83611626565b9150602083013580151581146116f457600080fd5b809150509250929050565b634e487b7160e01b600052604160045260246000fd5b6000806000806080858703121561172b57600080fd5b61173485611626565b935061174260208601611626565b925060408501359150606085013567ffffffffffffffff8082111561176657600080fd5b818701915087601f83011261177a57600080fd5b81358181111561178c5761178c6116ff565b604051601f8201601f19908116603f011681019083821181831017156117b4576117b46116ff565b816040528281528a60208487010111156117cd57600080fd5b82602086016020830137600060208483010152809550505050505092959194509250565b6000806040838503121561180457600080fd5b61180d83611626565b915061181b60208401611626565b90509250929050565b600181811c9082168061183857607f821691505b60208210810361185857634e487b7160e01b600052602260045260246000fd5b50919050565b60208082526031908201527f4552433732313a207472616e736665722063616c6c6572206973206e6f74206f6040820152701ddb995c881b9bdc88185c1c1c9bdd9959607a1b606082015260800190565b634e487b7160e01b600052603260045260246000fd5b634e487b7160e01b600052601160045260246000fd5b6000600182016118ed576118ed6118c5565b5060010190565b600083516119068184602088016115a2565b83519083019061191a8183602088016115a2565b01949350505050565b60008219821115611936576119366118c5565b500190565b60008282101561194d5761194d6118c5565b500390565b60208082526032908201527f4552433732313a207472616e7366657220746f206e6f6e20455243373231526560408201527131b2b4bb32b91034b6b83632b6b2b73a32b960711b606082015260800190565b634e487b7160e01b600052601260045260246000fd5b6000826119c9576119c96119a4565b500490565b6000826119dd576119dd6119a4565b500690565b6001600160a01b0385811682528416602082015260408101839052608060608201819052600090611a15908301846115ce565b9695505050505050565b600060208284031215611a3157600080fd5b8151610b708161156c565b634e487b7160e01b600052603160045260246000fdfea26469706673582212201c1a546c61ea09168b2ab70a38bdb4b5e8f177374afa9e6c499d512a84de51d264736f6c634300080e0033",
    "sourcePath": "/home/zarko/hackathon/codaproject/contracts/TicketNFT.sol",
    "compiler": {
        "name": "solc",
        "version": "0.8.14+commit.80d49f37"
    },
    "functionHashes": {
        "approve(address,uint256)": "095ea7b3",
        "balanceOf(address)": "70a08231",
        "getApproved(uint256)": "081812fc",
        "getTicketOwner(uint256)": "ad093409",
        "isApprovedForAll(address,address)": "e985e9c5",
        "name()": "06fdde03",
        "ownerOf(uint256)": "6352211e",
        "reserveTicket()": "951b81f5",
        "safeTransferFrom(address,address,uint256)": "42842e0e",
        "safeTransferFrom(address,address,uint256,bytes)": "b88d4fde",
        "sendTicket(uint256)": "115cb795",
        "setApprovalForAll(address,bool)": "a22cb465",
        "supportsInterface(bytes4)": "01ffc9a7",
        "symbol()": "95d89b41",
        "tokenByIndex(uint256)": "4f6ccce7",
        "tokenOfOwnerByIndex(address,uint256)": "2f745c59",
        "tokenURI(uint256)": "c87b56dd",
        "totalSupply()": "18160ddd",
        "transferFrom(address,address,uint256)": "23b872dd"
    },
    "gasEstimates": {
        "creation": {
            "codeDepositCost": "1358400",
            "executionCost": "infinite",
            "totalCost": "infinite"
        },
        "external": {
            "approve(address,uint256)": "infinite",
            "balanceOf(address)": "2656",
            "getApproved(uint256)": "4760",
            "getTicketOwner(uint256)": "2521",
            "isApprovedForAll(address,address)": "infinite",
            "name()": "infinite",
            "ownerOf(uint256)": "2601",
            "reserveTicket()": "56503",
            "safeTransferFrom(address,address,uint256)": "infinite",
            "safeTransferFrom(address,address,uint256,bytes)": "infinite",
            "sendTicket(uint256)": "219153",
            "setApprovalForAll(address,bool)": "26705",
            "supportsInterface(bytes4)": "infinite",
            "symbol()": "infinite",
            "tokenByIndex(uint256)": "6738",
            "tokenOfOwnerByIndex(address,uint256)": "5019",
            "tokenURI(uint256)": "infinite",
            "totalSupply()": "2326",
            "transferFrom(address,address,uint256)": "infinite"
        }
    }
}